:020000040800F2
:100000008006002045010008F10E0008E90E0008F6
:10001000ED0E0008FB0B00085D1A00080000000050
:10002000000000000000000000000000351400087F
:10003000FF0B000800000000FD1200084915000831
:100040005F0100085F0100085F0100085F01000810
:100050005F0100085F0100085F0100085F01000800
:100060005F0100085F0100085F0100085F010008F0
:100070005F0100085F0100085F0100085F010008E0
:100080005F0100085F0100085F0100085F010008D0
:100090005F0100085F0100085F0100085F010008C0
:1000A0005F0100085F0100085F0100085F010008B0
:1000B000AD1500085F0100085F0100085F0100083E
:1000C0005F0100085F0100085F0100085F01000890
:1000D0005F0100085F010008191700085F010008B0
:1000E0005F0100085F0100085F0100085F01000870
:1000F0005F0100085F0100085F0100085F01000860
:100100005F0100085F0100085F0100085F0100084F
:100110005F0100085F0100085F0100085F0100083F
:100120005F0100085F0100085F0100085F0100082F
:10013000DFF80CD000F0BEFB00480047012B0008A0
:10014000800600200648804706480047FEE7FEE795
:10015000FEE7FEE7FEE7FEE7FEE7FEE7FEE7FEE777
:100160004D1500083101000880EA010210B502F0C7
:100170000043400022D04A001FD0010E01EB126163
:10018000C0F35600C2F3560240F4000042F40002ED
:10019000A0FB022000047F39140400D0401C50EA68
:1001A000124001D44000491EC2B20C0604EBD0102C
:1001B000401C4008802A02D003E0002010BD20F03F
:1001C0000100002900DA0020184310BD30B480EA95
:1001D000010202F0004530F0004221F0004013D04F
:1001E00090B1C30DD40DC2F31601C0F31600E41A8A
:1001F00041F4000140F400027D34914201D3641CBB
:1002000000E04900002C02DA30BC002070474FF4B7
:1002100000000023914201D3891A034340084FEAAA
:100220004101F7D151B1914202D14FF0004105E0B7
:1002300002D24FF0010101E06FF0010103EBC45065
:10024000284430BC00F072BA2DE9FE4F804681EAA6
:100250000300C00F0C46009021F0004123F0004540
:10026000B8EB0200A94105D24046214690461C4603
:100270000B46024623F00040104347D0270DC7F33A
:100280000A00C3F30A510290401A019040286BDA29
:10029000C3F3130040F4801B0098924620B1002362
:1002A000D2EB030A63EB0B0B01985946C0F14002F5
:1002B000504600F00AFA06460D4650465946019A45
:1002C00000F022FA10EB08006141002487EA115285
:1002D00084EAE7731A4340D0009A62B3019A012A74
:1002E0004FEA075215DC001B61EB02014FF00042A0
:1002F00002EA0752CDE90042001C41F58011324666
:100300002B4600F059FA03B0BDE8F08F4046214675
:10031000F9E7001B61EB0201001C41F58013001896
:100320005B412018A2F5001747EB030140EAD570A6
:10033000B6196D4111E06D084FEA360645EAC07501
:100340004FEA0752001B61EB0201001C41F58011CE
:1003500049084FEA30000019514132462B4603B09C
:10036000BDE8F04F00F019BA0098012240000023C8
:10037000D0EB020263EBE073009821464FEAE07491
:10038000B8EB000061EB0401E9E783F000435BE7B1
:1003900081F0004158E72DE9FE4F81EA030404F0A3
:1003A000004421F0004100944FF0000B23F0004383
:1003B00050EA01045ED052EA03045BD0C3F30A544E
:1003C000C1F30A552C44A4F2F3340194A0FB025467
:1003D000C1F3130141F48011C3F3130343F48013F9
:1003E00001FB024400FB034E840A970A44EA81544D
:1003F00047EA8357A4FB076802958D0A05FB07852A
:100400004FEA932C04FB0C542705029D4FEA065833
:1004100047EA1637B5EB08056EEB070C870E920E10
:1004200047EA811742EA8312A7FB0201B6EB0B01F0
:1004300064EB00042B0D43EA0C335E1844EB1C50B4
:10044000DA465146E7FB0201C5F313044FEA0B33CA
:1004500043EA14534FEA0432019C43EA0603A4F131
:100460000C040294009CCDE900B400F0A5F903B09F
:10047000BDE8F08F00200146F9E72DE9F04D81EA53
:10048000030404F0004B21F0004514464FF0000A2D
:1004900023F0004150EA050220D054EA01021DD0A9
:1004A000C5F30A570246C5F31303C1F31300C1F3A2
:1004B0000A5640F4801543F48013A7EB0608101B7E
:1004C000D64608F2FD3873EB050002D308F10108A7
:1004D00001E092185B41B8F1000F03DA00200146F9
:1004E000BDE8F08D00204FF48011064684460EE0F2
:1004F000171B73EB050705D3121B63EB05030643BC
:100500004CEA010C49084FEA300092185B4150EA6E
:100510000107EDD152EA030012D082EA040083EA17
:100520000501084305D0101BAB4106D20122002370
:1005300006E000224FF0004302E06FF0010253108A
:100540001AEB06004CEB085110EB0A0041EB0B01D3
:10055000BDE8F04D00F021B9C10F80EAE070084419
:10056000CA079623002100F0EAB80EB5C10F80EA51
:10057000E0700844CA07002140F233438DE80E00C2
:100580000A460B4600F018F903B000BD70B5C1F380
:100590000A5201F000450024C1F3130140F2FF3379
:1005A00041F480119A4201DA002070BD40F23343D9
:1005B0009A42A2F2334203DC524200F095F800E086
:1005C00090402C43F1D0404270BD00F0004230F02A
:1005D00000400AD0C10D01F56071C0F3160042EA77
:1005E0000151C2084007114370470020014670477F
:1005F00001F0004330B421F0004150EA010206D07E
:100600000A0DA2F56072C1F31301002A02DC30BCAE
:1006100000207047440F44EAC104C100E01830BC18
:1006200000EBC25000F082B8002801DBC0F10040AE
:10063000002901DBC1F100418842704730B50B460B
:10064000014600202022012409E021FA02F59D4202
:1006500005D303FA02F5491B04FA02F52844151ED6
:10066000A2F10102F1DC30BD2DE9F05F054600206A
:1006700092469B4688460646814640241BE0284613
:1006800041464746224600F02FF853465A46C01AC4
:10069000914110D311461846224600F016F82D1A43
:1006A00067EB01084F4622460120002100F00DF8BB
:1006B00017EB00094E41201EA4F10104DFDC48467F
:1006C00031462A464346BDE8F09F202A04DB203A03
:1006D00000FA02F1002070479140C2F1200320FA95
:1006E00003F3194390407047202A04DB203A21FA93
:1006F00002F00021704721FA02F3D040C2F120023B
:100700009140084319467047202A06DBCB17203A50
:1007100041FA02F043EAE07306E041FA02F3D04006
:10072000C2F1200291400843194670470029A8BF32
:100730007047401C490008BF20F00100704710B40A
:10074000B0FA80FC00FA0CF050EA010404BF10BCBF
:10075000704749B1CCF1200421FA04F411FA0CF1EC
:1007600018BF012121430843A3EB0C01CB1D4FEA25
:1007700000614FEA102042BF002010BC704700EB20
:10078000C35010440029A4BF10BC7047401C49004E
:1007900008BF20F0010010BC704710B5141E73F1A3
:1007A000000408DA401C41F1000192185B411A4331
:1007B00001D120F0010010BD2DE9F04D92469B467D
:1007C00011B1B1FA81F202E0B0FA80F22032904623
:1007D000FFF77BFF04460F4640EA0A0041EA0B019F
:1007E00053465A46084313D0114653EA010019D024
:1007F000C8F140025046FFF777FF05460E465046C7
:1008000059464246FFF761FF084305D0012004E046
:1008100020463946BDE8F08D0020054346EAE076E3
:100820002C4337430A986305E40AA0EB0800002232
:10083000FD0A44EA47540A3002D500200146E9E7A0
:10084000010510196941DDE9084500196941BDE854
:10085000F04DA2E7C1F30A52C1F3130140F2FF3396
:1008600041F480119A4202DA00200146704740F2BA
:1008700033439A42A2F2334202DC5242FFF734BFC2
:10088000FFF723BF30B5041E71F1000404DB4FF005
:100890000044404264EB0101141E73F1000405DBC7
:1008A0001C464FF00043524263EB0403994208BFD9
:1008B000904230BD064C074D06E0E06840F0010371
:1008C00094E8070098471034AC42F6D3FFF734FCA5
:1008D0000C3500082C35000870B58D1810F8014B48
:1008E00014F0030201D110F8012B231106D110F8E6
:1008F000013B03E010F8016B01F8016B521EF9D1C6
:10090000ABB110F8012B04F00C048A1A0C2C03D0A4
:10091000A2EB84129B1C08E010F8014BA2EB04220E
:10092000F8E712F8014B01F8014B5B1EF9D5A9421B
:10093000D4D3002070BD21B1826842F001028260F0
:1009400003E0826822F001028260704710B504461D
:100950001248844208D10121401500F0F1FC002129
:10096000601500F0EDFC17E00D48844208D101212C
:10097000001500F0E5FC0021201500F0E1FC0BE083
:100980000848844208D10121C80300F0D9FC0021A5
:100990004FF4004000F0D4FC10BD000000240140E2
:1009A00000280140003C0140014600208A6802F016
:1009B00004020AB1012000E0002070470146C86C23
:1009C00080B270470246002013680B400BB1012033
:1009D00000E000207047014600208A6802F008020B
:1009E0000AB1012000E000207047000030B5024647
:1009F0000020002350680F4C20400D790C6844EA19
:100A000005242043506090680B4C2040D1E90254EB
:100A10002C434D7944EA450420439060D06A20F489
:100A200070000C7C641EE4B2234340EA0350D062A1
:100A300030BD0000FFFEF0FFFDF7F1FFF0B504460A
:100A40000D4600200021092D11DDE068A5F10A0600
:100A500006EB4607072606FA07F18843A5F10A06C2
:100A600006EB460603FA06F10843E0600CE0206955
:100A700005EB4507072606FA07F1884305EB45060F
:100A800003FA06F108432061072A0FDA606B561E4D
:100A900006EB86071F2606FA07F18843561E06EB6B
:100AA000860605FA06F10843606322E00D2A0FDA94
:100AB000206BD61F06EB86071F2606FA07F1884330
:100AC000D61F06EB860605FA06F10843206310E000
:100AD000E06AA2F10D0606EB86071F2606FA07F16B
:100AE0008843A2F10D0606EB860605FA06F10843D7
:100AF000E062F0BD816841F008018160704721B17A
:100B0000826842F4A002826003E0826822F4A002BC
:100B100082607047816841F00401816070472DE96F
:100B2000F04303460A460020002108E033F811C0D4
:100B300084441FFA8CF001F1010C0CF0FF0191428A
:100B4000F4DB90FBF2FC1FFA8CF001242546002612
:100B50003746002122E033F811C084450DDD33F81B
:100B600011C0ACEB000CB44514DD33F811C0ACEB94
:100B7000000C1FFA8CF60C460CE033F811C0A0EB09
:100B80000C0CBC4506DD33F811C0A0EB0C0C1FFAB1
:100B90008CF70D4601F1010C0CF0FF019142DADBFC
:100BA000002000210CE0A94206D0A14204D033F875
:100BB00011C084441FFA8CF001F1010C0CF0FF010C
:100BC0009142F0DBA5420BD0944602EBDC7800EBBF
:100BD0006809A2F1020899FBF8F81FFA88F00AE008
:100BE000944602EBDC7800EB6809A2F1010899FB5E
:100BF000F8F81FFA88F0BDE8F08300BFFEE7704701
:100C00002DE9F041024600250026002000230024A3
:100C1000002791F803C00CF00F0591F803C00CF009
:100C2000100CBCF1000F03D091F802C04CEA05058E
:100C300091F800C0BCF1000F31D0146800202BE007
:100C40004FF0010C0CFA00F3B1F800C00CEA0306F7
:100C50009E4220D183004FF00F0C0CFA03F7BC43E7
:100C600005FA03FC4CEA040491F803C0BCF1280F18
:100C700006D14FF0010C0CFA00FCC2F814C00AE0D7
:100C800091F803C0BCF1480F05D14FF0010C0CFAEC
:100C900000FCC2F810C0401C0828D1D31460B1F881
:100CA00000C0BCF1FF0F34DD546800202EE000F1DD
:100CB000080C4FF0010808FA0CF3B1F800C00CEA78
:100CC00003069E4221D183004FF00F0C0CFA03F76C
:100CD000BC4305FA03FC4CEA040491F803C0BCF1E0
:100CE000280F05D100F1080C08FA0CF8C2F814809E
:100CF00091F803C0BCF1480F07D100F1080C4FF088
:100D0000010808FA0CF8C2F81080401C0828CED35D
:100D10005460BDE8F0814161704701617047000097
:100D200010B500240723012211460A48FFF786FE6A
:100D300001210848FFF7E3FE00BF02210548FFF745
:100D400041FE0028F9D00348FFF738FE04B22046E0
:100D500010BD00000024014000B587B00121102023
:100D600000F0DEFA01214FF4017000F0D9FA4FF4DF
:100D70004070ADF8040010208DF8070003208DF8B6
:100D8000060001A92348FFF73BFF0220ADF804004D
:100D900000208DF8070001A91F48FFF731FF1F4809
:100DA000FFF7D4FD002002908DF80C008DF80D00A7
:100DB0004FF4602004900020059001208DF8180069
:100DC00002A91648FFF712FE01211448FFF7B3FDF0
:100DD0001248FFF78FFE00BF1048FFF7FCFD012807
:100DE000FAD00E48FFF796FE00BF0C48FFF7DCFD77
:100DF0000128FAD0002005E00021094A22F810104D
:100E0000411C48B20A28F7DB002005498882C882C5
:100E100007B000BD0010014000080140002401405F
:100E20004002002010B52B480078002850D12A48F5
:100E3000007818B910202849087049E02648007841
:100E4000102845D1254890F90000002806DD2348E8
:100E50000078401E40B22149087002E009201F4975
:100E600008701E4890F9000005280ADB4FF4007155
:100E70001B48FFF752FF4FF480711948FFF74BFFF3
:100E800009E04FF400711648FFF745FF4FF48071F9
:100E90001348FFF742FF11480078022818D1114883
:100EA000808A012814D1FFF73BFF81B20D48B0F9C9
:100EB0001620C08A401C00B20A4BD882184620F87F
:100EC0001210C08A0A2803D1002019468882C882DD
:100ED00010BD00001D0200201E0200201C02002088
:100EE000001001404002002000BFFEE700BFFEE707
:100EF000704710B54FF4A06000F03AF810BD000044
:100F000070B5002100230F22C47804B3154C246867
:100F100004F4E064C4F5E064210AC1F10403CA40AA
:100F2000447804FA03F184781440214309010E4CFB
:100F30000678A155047804F01F050124AC4005781B
:100F40006D11AD0005F1E025C5F8004109E0047818
:100F500004F01F050124AC40044D0678761145F8D5
:100F6000264070BD0CED00E000E400E080E100E010
:100F700002490143024A1160704700000000FA056F
:100F80000CED00E070B5002419E004F1B001C8B226
:100F9000002100F07BF90021084600F077F90021DC
:100FA000102000F073F9002505E00121002000F079
:100FB0006DF9681CC5B2802DF7DB601CC4B2082C2B
:100FC000E3DB70BD08B501214FF4947000F0A8F97F
:100FD0004FF4FC70ADF8000010208DF803000320E2
:100FE0008DF8020069465648FFF70AFE4FF4FC717F
:100FF0005348FFF792FE0320ADF8000069465148C0
:10100000FFF7FEFD03214F48FFF787FE4FF4004036
:10101000ADF8000069464C48FFF7F2FD4FF400417F
:101020004948FFF77AFE10214548FFF776FE642015
:1010300001F018FA10214248FFF76DFE642001F01C
:1010400011FA10213E48FFF768FE0021AE2000F0A3
:101050001DF90021084600F019F90021102000F0C8
:1010600015F90021402000F011F90021812000F045
:101070000DF90021CF2000F009F90021A12000F096
:1010800005F90021C82000F001F90021A62000F098
:10109000FDF80021A82000F0F9F800213F2000F021
:1010A000F5F80021D32000F0F1F80021084600F007
:1010B000EDF80021D52000F0E9F80021802000F0B3
:1010C000E5F80021D92000F0E1F80021F12000F03E
:1010D000DDF80021DA2000F0D9F80021122000F01C
:1010E000D5F80021DB2000F0D1F80021402000F0ED
:1010F000CDF80021202000F0C9F80021022000F0E6
:10110000C5F800218D2000F0C1F80021142000F066
:10111000BDF80021A42000F0B9F80021A62000F0BD
:10112000B5F80021AF2000F0B1F80021AF2000F0A9
:10113000ADF8FFF727FF0021084600F007F808BDCB
:1011400000140140001001400020014070B5044629
:101150000D4605F1B001C8B2002100F097F810214A
:1011600041EA1410002100F091F804F00F0141F061
:101170000100002100F08AF870BD00002DE9F04167
:1011800080460E461546002731464046FFF7DEFFF3
:1011900000240AE0124A02EB8511085D012100F0EB
:1011A00075F8781CC7B2601CC4B2102CF2DB701C3E
:1011B000C1B24046FFF7CAFF00240CE06900491C99
:1011C000074A02EB4111085D012100F05FF8781C2D
:1011D000C7B2601CC4B2102CF0DBBDE8F081000087
:1011E000140000202DE9F04107460E4690460025E8
:1011F0000024A8F12000C5B27F2F02DD0027B01C1B
:10120000C6B231463846FFF7A1FF002408E004EBE0
:1012100005110F4A505C012100F038F8601CC4B27F
:10122000082CF4DB701CC1B23846FFF78FFF002496
:1012300009E004EB05110831054A505C012100F07A
:1012400025F8601CC4B2082CF3DBBDE8F081000077
:101250001C2F00082DE9F04104460F4615460026D4
:101260000EE0AA5D39462046FFF7BCFF04F10800F6
:10127000C4B2782C02DD0024B81CC7B2701CC6B200
:10128000A85D0028EDD1BDE8F081000070B50446EE
:101290000E4626B120211848FFF73FFD03E020212C
:1012A0001548FFF738FD08211348FFF734FD0025E6
:1012B00017E040211048FFF72EFD04F0800020B118
:1012C00080210D48FFF729FD03E080210A48FFF740
:1012D00022FD40210848FFF720FD6006040E681C2F
:1012E000C5B2082DE5DB08210348FFF716FD2021D4
:1012F0000148FFF712FD70BD001401407047000067
:1013000029B1064AD2690243044BDA6104E0034A78
:10131000D2698243014BDA6170470000001002403D
:1013200029B1064A92690243044B9A6104E0034AD8
:1013300092698243014B9A6170470000001002409D
:1013400029B1064AD2680243044BDA6004E0034A3A
:10135000D2688243014BDA607047000000100240FF
:1013600030B500210022002400232D4D6D6805F0CA
:101370000C0121B1042905D0082923D105E0294D0C
:10138000056022E0274D05601FE0254D6D6805F4DE
:101390007012234D6D6805F48034022505EB9242EE
:1013A0001CB9214D554305600BE01D4D6D6805F4DA
:1013B00000351DB11C4D5543056002E0194D5543E4
:1013C000056002E0174D056000BF00BF144D6D6859
:1013D00005F0F0010909154D6B5C0568DD404560BD
:1013E0000F4D6D6805F4E061090A104D6B5C4568AE
:1013F000DD4085600A4D6D6805F46051C90A0B4DEA
:101400006B5C4568DD40C560054D6D6805F4404185
:10141000890B074D6B5CC568B5FBF3F5056130BD05
:101420000010024000127A0000093D002602002050
:1014300036020020704710B500F002F810BD000021
:101440000CB50020019000903348006840F48030D3
:101450003149086000BF3048006800F40030009057
:101460000198401C0190009818B90198B0F5A06F40
:10147000F1D12948006800F4003010B1012000903B
:1014800001E0002000900098012843D12348006823
:1014900040F01000214908600846006820F0030071
:1014A00008600846006840F0020008601A4840687A
:1014B000194948600846406848600846406840F45A
:1014C000806048600846406820F47C104860084608
:1014D000406840F4E81048600846006840F08070BA
:1014E000086000BF0C48006800F000700028F9D0C8
:1014F0000948406820F003000749486008464068F2
:1015000040F00200486000BF0348406800F00C0053
:101510000828F9D10CBD0000001002400020024054
:10152000042808D14FF0E021096941F004014FF08F
:10153000E022116107E04FF0E021096921F0040188
:101540004FF0E022116170477047000010B513485A
:10155000006840F0010011490860084640681049E1
:1015600008400E494860084600680E4908400B498B
:1015700008600846006820F480200860084640683B
:1015800020F4FE0048604FF41F008860FFF753FF0F
:101590004FF000600449086010BD000000100240D8
:1015A0000000FFF8FFFFF6FE08ED00E010B5012196
:1015B000880700F045F828B10121880700F031F8CC
:1015C000FFF730FC10BD7FB505460C4601210846EB
:1015D000FFF796FEADF80850ADF804400020ADF8D6
:1015E0000A00ADF8060001A94FF0804000F042F873
:1015F00001221146900700F034F81C208DF80000FD
:1016000000208DF8010003208DF8020001208DF8E4
:1016100003006846FFF774FC0121880700F004F816
:101620007FBDCA430282704721B1028842F00102A5
:10163000028004E002884FF6FE731A400280704771
:1016400030B50246002000230024158A05EA010374
:10165000958905EA010413B10CB1012000E00020D6
:1016600030BD1AB183890B43838102E083898B43A8
:1016700083817047002202881D4B98420ED01D4B7B
:1016800098420BD0B0F1804F08D01B4B984205D048
:101690001A4B984202D01A4B984204D14FF68F73DE
:1016A0001A404B881A43174B984207D0164B984262
:1016B00004D04FF6FF431A40CB881A4302808B8830
:1016C00083850B8803850A4B98420BD0094B9842BF
:1016D00008D00E4B984205D00D4B984202D00D4BCE
:1016E000984201D10B7A0386012383827047000060
:1016F000002C01400034014000040040000800407C
:10170000000C004000100040001400400040014068
:10171000004401400048014010B540F225512648E0
:1017200000F06DF8002845D0234800F023F9C1B23D
:10173000224802780078401C204B187020488154C1
:1017400000785A2802D00020194608701B480078FB
:10175000022806D11A4840785A2802D0002017499A
:10176000087016480078032824DD1548C078401D0D
:1017700012490978884200D010BD11488078152898
:1017800012D0352811D0452810D10E48007850B914
:101790000D480B490A6802604A684260097A017282
:1017A00001200849087001E000E000BF00BF0020F0
:1017B0000249087000BFDFE700440040200200201B
:1017C0006C0200201F0200205802002021B18289F3
:1017D00042F40052828104E082894DF6FF731A4080
:1017E0008281704702460020B1F5007F00D100BF22
:1017F00013880B400BB1012000E00020704770B54A
:101800000246002400230025002040F66A16B1425B
:1018100000D100BFC1F3421501F01F03012606FAF3
:1018200003F3012D02D19689334006E0022D02D147
:10183000168A334001E0968A33400C12012606FADC
:1018400004F41688344013B10CB1012000E00020EC
:1018500070BDF0B50346002400260025002040F6A8
:101860006A17B94200D100BF1846C1F3421401F013
:101870001F06012707FA06F5012C01D10C3004E000
:10188000022C01D1103000E014301AB107682F4348
:10189000076002E00768AF430760F0BD2DE9F0473D
:1018A00086B005460E460024A24600BFA14600278A
:1018B000B08900B100BF2F462C8A4CF6FF7004405F
:1018C000F08804432C82AC894EF6F3100440B088B3
:1018D00031890843718908430443AC81AC8A4FF6CF
:1018E000FF400440B0890443AC8201A8FFF738FDF3
:1018F0001F48874202D1DDF810A001E0DDF80CA0FE
:10190000A88900F4004040B10AEBCA0000EB0A10BD
:1019100031684900B0FBF1F807E00AEBCA0000EBC0
:101920000A1031688900B0FBF1F86420B8FBF0F0D0
:1019300004012009642101FB1089A88900F40040FA
:1019400040B1322000EBC900B0FBF1F000F007001D
:10195000044308E0322000EB09106421B0FBF1F0F1
:1019600000F00F0004432C8106B0BDE8F0870000B2
:101970000038014001468888C0F308007047C1F371
:10198000080282807047000000B587B001218803FB
:10199000FFF7C6FC01210420FFF7C2FC012104204F
:1019A000FFF7BEFC01214804FFF7AAFC4FF40170C9
:1019B000ADF8140018208DF8170003208DF81600DC
:1019C00005A92348FFF71CF94FF48160ADF8140016
:1019D00004208DF8170005A91D48FFF711F94FF4F1
:1019E000A060FFF7C5FA26208DF8180000208DF8BA
:1019F00019008DF81A0001208DF81B0006A8FFF7CA
:101A00007FFA4FF4E13001900020ADF80800ADF806
:101A10000A00ADF80C00ADF810000C20ADF80E0077
:101A200001A90C48FFF73AFF01A90B48FFF736FF61
:101A300001210848FFF7CAFE01210748FFF7C6FE4B
:101A4000012240F225510448FFF703FF07B000BD13
:101A500000080140003801400044004000BFFEE79C
:101A60000FB4054B10B503A9044A029800F0EEF834
:101A700010BC5DF814FB0000192500083C02002092
:101A80000FB4084B10B504A902AA039800F0DEF8C1
:101A9000044602A9002000F070FC204610BC5DF84E
:101AA00014FB00007B23000802E008C8121F08C1D5
:101AB000002AFAD170477047002001E001C1121FCF
:101AC000002AFBD1704700002DE9FF5F82B00021A2
:101AD000DDE90430020DDDF840B0034318D044F6D0
:101AE0001050A2F2FF3242431514119801281FD062
:101AF000A5EB0B00401C5FEA000A4FF000064E4FBA
:101B0000DFF83891B046504615D5CAF1000413E00D
:101B1000119801244AA3012801D16FEA0B01029810
:101B2000119AC0E90031C0E9024206B0BDE8F09F59
:101B3000CBF10000DFE704460021404A491842EBA0
:101B40000450CDE9001012E0E00707D032463B46D2
:101B500040464946FEF71FFC8046894632463B46D2
:101B600010461946FEF717FC06460F466410002C77
:101B7000EAD1DDE90401DDE90023BAF1000F06DA5C
:101B8000FEF709FC42464B46FEF705FC05E0FEF772
:101B900074FC42464B46FEF770FC04460E4600229B
:101BA000284BFEF76FFE03D84FF0FF30014607E0E9
:101BB0000022254B20463146FEF746FBFEF74AFE43
:101BC000102409E0002C0ADB0A220023FEF74CFD5A
:101BD000039B30321A55641E50EA0102F2D1641C94
:101BE000039AC4F111031444119A012A03D001226B
:101BF00008430DD10AE0084304D000204FF0110B38
:101C0000119072E7A3EB0B056D1E0DE05B4504DD43
:101C10004FF0000205F1010504E003DA4FF0000285
:101C2000A5F10105002AECD002981199C0E9023112
:101C3000C0E9004579E70000000014400000F03FD3
:101C4000300000000000F0430000E03F2DE9FF4FAE
:101C500095B09B468946064600250FE2252877D198
:101C600000242746F84A0121059400E0044316F8B1
:101C7000013F203B01FA03F01042F7D130782A28C7
:101C800011D06FF02F033078A0F13002092A16D856
:101C9000059A44F0020402EB820203EB4202104474
:101CA000761C0590EFE759F8042B0592002A03DA19
:101CB000504244F40054059044F00204761C3078FD
:101CC0002E2816D116F8010F44F004042A280DD04E
:101CD0006FF02F023078A0F13003092B09D807EB01
:101CE000870302EB4303C718761CF3E759F8047B1C
:101CF000761C30786C280FD006DC4C2817D068286A
:101D00000DD06A2814D104E0742810D07A280FD19D
:101D10000DE044F400140AE044F4801401E044F4BB
:101D200040147278824202D104F58014761C761C2D
:101D3000307866280BD013DC582877D009DC0028CF
:101D400075D04528F6D04628F4D047281AD19DE111
:101D500018E0632835D0642879D0652812D195E140
:101D6000702873D008DC6728F1D069286FD06E28FE
:101D70000DD06F2806D1B5E073282CD0752875D00A
:101D8000782874D05A46179990476D1C75E1C4F3B2
:101D90000250022809D003280DD0D9F800100428D9
:101DA0000DD00D6009F1040967E1D9F80010EA17B8
:101DB000C1E90052F6E7D9F800100D80F2E70D7086
:101DC000F0E719F8041B8DF8001000208DF80100D1
:101DD000EA46012003E059F804AB4FF0FF306107F9
:101DE0004FF0000102D40DE008F101018846B9422C
:101DF0000FDA8045F8DB1AF808100029F4D108E062
:101E000008F1010188468142FADB1AF8081000291E
:101E1000F6D105985B46A0EB080721463846179A8D
:101E200000F094FA284400EB080507E04DE029E1B2
:101E30000DE01AF8010B5A4617999047B8F10108BE
:101E4000F7D25B4621463846179A13E142E00A2250
:101E50000092C4F302524FF0000A022A08D059F847
:101E600004CB032A4FEAEC710AD00DE029E02AE006
:101E700009F1070121F00702F2E802C1914609E0E9
:101E80000FFA8CFC4FEAEC71042A03D14FFA8CFC58
:101E90004FEAEC71002907DA0A460021DCF1000C58
:101EA00061EB02012D2202E0220504D52B228DF8E0
:101EB0000420012203E0E20701D02022F7E7904648
:101EC00059E00A2102E010220DE010214FF0000A33
:101ED00000910BE010224FF0000A44F004040827A0
:101EE000009203E008224FF0000A0092C4F302526D
:101EF000022A05D059F804CB0021032A08D009E0B2
:101F000009F1070121F00702F2E802C1914605E05C
:101F10001FFA8CFC042A01D10CF0FF0C4FF00008D2
:101F2000220728D5702806D0009B83F0100353EABF
:101F30000A0305D00EE040228DF80420012208E0BB
:101F40005CEA010206D030228DF804208DF80500ED
:101F500002229046009B83F0080353EA0A030AD149
:101F60005CEA010201D1620705D530228DF8042018
:101F70004FF001087F1E582804D034A003900EA80B
:101F800002900DE036A0F9E753466046009AFEF74E
:101F90006BFB84460398825C0298401E029002709C
:101FA0005CEA0100F0D1029806A9081A00F1200AA3
:101FB000600702D524F4803400E00127574502DD94
:101FC000A7EB0A0000E0002000EB0A010090059852
:101FD0004144401A0590E00306D45B462146179A17
:101FE000059800F0B3F90544002706E001A85A4619
:101FF000C05D179990476D1C7F1C4745F6DBE003D9
:102000000CD55B462146179A059800F09FF90544C8
:1020100004E030205A46179990476D1C0099481EDD
:1020200000900029F5DC08E0029802995A460078F1
:10203000491C0291179990476D1CBAF10001AAF151
:10204000010AF1DC65E1000009280100303132337A
:1020500034353637383961626364656600000000E4
:1020600030313233343536373839414243444546CE
:102070000000000000F058F90544761C3078002874
:102080007FF4ECAD19B02846BDE8F08F620700D4AC
:10209000062709F1070222F0070CFCE80223E146BB
:1020A00003F000485FEA080C02D00FF2702C0DE03C
:1020B0005FEA045C02D50FF2682C07E05FEAC47C9B
:1020C00002D00FF2602C01E0AFF2700C4FF0FF383D
:1020D00023F00043CDF850C065280CD006DC45281D
:1020E00009D046281DD047283DD13DE0662818D0AC
:1020F00067287ED138E00021112F01DB112000E09C
:10210000781CCDE9000106A90EA8FFF7DDFCDDE98A
:102110000F010E9A03910021009207F1010A049128
:102120004DE04FF000400097CDE9011006A90EA840
:10213000FFF7CAFCDDE90F0203920E9B1199002202
:10214000DDF80CA00093049211B9791C00EB010A90
:10215000B7EB0A0004D4C0F1FF3007F1010A049084
:10216000AAEB0700019044E0012F00DA01270021CB
:10217000112F01DD112000E03846CDE9000106A94C
:102180000EA8FFF7A1FCDDE90F010E9A03910021D3
:1021900004910092BA4621070CD40399514500DA04
:1021A0008A46BAF1010F05DD009AAAF10101515CDE
:1021B000302908D0B84202DA10F1040F06DA012102
:1021C000CDE9011015E0AAF10101E9E7002805DCDD
:1021D000049901440491AAEB000102E0411C51451D
:1021E00000DD8A460499401A401C01904FF00040DF
:1021F0000290200704D40198504501DBCDF80480FB
:1022000000208DF84F0002980DF14F07B0F1004FFC
:1022100025D02B200E9002984FF0020800280CDAEF
:10222000404202902D200E9007E00A210298FEF70E
:1022300005FA3031029007F8011DB8F10001A8F14C
:102240000108F2DC02980028EFD1791E0E98087080
:10225000307800F0200040F0450007F8020D12A889
:10226000C01B00F107081498007800B1012000EBB2
:102270000A01019801EBE07105984144401A401EA3
:102280000590E00306D45B462146179A059800F0B6
:102290005DF805441498007818B15A46179990478C
:1022A0006D1CE00324D55B462146179A059800F083
:1022B0004DF805441CE00498002807DBDDE9030124
:1022C000884203DD0098405C179901E0179930209F
:1022D0005A469047049805F10105401C0490019866
:1022E000401E019004D12E205A46179990476D1C2C
:1022F000BAF10001AAF1010ADDDC05E017F8010BD3
:102300005A46179990476D1CB8F10001A8F10108D1
:10231000F4DC5B462146179A0598ABE62D000000D9
:102320002B000000200000002DE9F04104460025AC
:102330001E461746880404D405E039462020B047DD
:102340006D1C641EF9D52846BDE8F0812DE9F041E9
:10235000044600251E469046C80301D5302700E0FC
:102360002027880404D505E041463846B0476D1C57
:10237000641EF9D52846BDE8F0810A68531C0B603D
:10238000107070472DE9FC5F4FF0000B1F48808AEA
:1023900040B90A211D48FEF7C2FB0FFA80FB01205D
:1023A0001A4988825846FEF7D7F80190FEF70DF9D2
:1023B00080464FF06632164BFDF7EDFF06460022D1
:1023C000144BFEF75AF80446FEF712F982465046BF
:1023D000FEF7FBF806464FF066320D4BFDF7D8FFCF
:1023E0008046894651460C48FDF7BEFE0646FEF77C
:1023F000ECF842464B46CDE90001FEF73EF80446B4
:10240000FEF7C4F805490860BDE8FC9F40020020C3
:1024100066660A400000B0400038474718020020B6
:1024200010B56FF00400FFF77BF80A4800680A490E
:10243000B0FBF1F0094908700846007800EB400154
:10244000C1EBC0104FF6FF7101EAC00004490880DB
:1024500010BD00000000002000127A0022020020BF
:10246000240200200146114A12884A434FF0E0231B
:102470005A6100229A611A46126942F001021A61F9
:1024800000BF4FF0E022106900F001021AB100F421
:102490008032002AF5D04FF0E022126922F00102CA
:1024A0004FF0E0231A6100229A6170472402002055
:1024B0002DE9F04180460C4615460C494046FEF792
:1024C000B3F807D20A492046FEF7AEF802D209A0B7
:1024D000FFF7C6FA2846FEF778F8064632460B465E
:1024E00009A0FFF7BDFABDE8F081000000000C4232
:1024F0000000A042353A6F7264657231BCECB2E202
:10250000B5BD0D0A00000000353A6F726465723285
:10251000252E33660D0A000070B504460D46E1B263
:102520000548FFF72CFA00BF80210348FFF75AF94E
:102530000028F9D0204670BD003801402DE9F05F39
:10254000F74800684FF47A7190FBF1F040F62821CB
:10255000884214DBF24800684FF47A7190FBF1F086
:10256000F0490A2202FB101000EB800040004FF4FB
:10257000965190FBF1F000B2EB4908804FE2E84839
:1025800000684FF47A7190FBF1F040F214518842E8
:1025900001DB012000E00020E14909684FF47A7274
:1025A00091FBF2F140F62822914201DA012100E08C
:1025B00000210840A0B1DA4800684FF47A7190FB1E
:1025C000F1F0DA490A2202FB101000EB8000400013
:1025D00040F6282190FBF1F000B2D34908801EE2BA
:1025E000CF4800684FF47A7190FBF1F040F2762109
:1025F000884201DB012000E00020C94909684FF44E
:102600007A7291FBF2F140F21452914201DA012107
:1026100000E000210840A8B1C14800684FF47A7179
:1026200090FBF1F04CF6D0710A2202FB101000EB87
:102630008000400040F23C5190FBF1F000B2BA49FA
:102640000880ECE1B64800684FF47A7190FBF1F035
:10265000B0F59B7F01DB012000E00020B049096854
:102660004FF47A7291FBF2F140F27622914201DA54
:10267000012100E000210840A0B1A94800684FF402
:102680007A7190FBF1F047F21C010A2202FB101054
:1026900000EB80004000910190FBF1F000B2A249F4
:1026A0000880BCE19E4800684FF47A7190FBF1F01D
:1026B000A02801DB012000E00020994909684FF4BF
:1026C0007A7291FBF2F1B1F59B7F01DA012100E012
:1026D00000210840A8B1924800684FF47A7190FB3D
:1026E000F1F043F6FC210A2202FB101000EB8000FF
:1026F00040004FF4967190FBF1F000B28A490880D7
:102700008DE1874800684FF47A7190FBF1F057280B
:1027100001DB012000E00020814909684FF47A7252
:1027200091FBF2F1A02901DA012100E0002108402B
:10273000A0B17B4800684FF47A7190FBF1F041F64C
:10274000EA710A2202FB101000EB80004000922187
:1027500090FBF1F000B27449088060E170480068B5
:102760004FF47A7190FBF1F0312801DB012000E099
:1027700000206B4909684FF47A7291FBF2F15729F6
:1027800001DA012100E000210840A0B1644800689E
:102790004FF47A7190FBF1F041F23E210A2202FBE4
:1027A000101000EB800040004C2190FBF1F000B2D3
:1027B0005D49088033E15A4800684FF47A7190FB14
:1027C000F1F01F2801DB012000E0002054490968D6
:1027D0004FF47A7291FBF2F1312901DA012100E024
:1027E00000210840A0B14E4800684FF47A7190FB78
:1027F000F1F040F6A6110A2202FB101000EB800057
:102800004000242190FBF1F000B24749088006E126
:10281000434800684FF47A7190FBF1F0142801DB13
:10282000012000E000203E4909684FF47A7291FBD4
:10283000F2F11F2901DA012100E000210840A0B1D6
:10284000374800684FF47A7190FBF1F040F25E6116
:102850000A2202FB101000EB80004000162190FBC2
:10286000F1F000B230490880D9E02D4800684FF4FB
:102870007A7190FBF1F00D2801DB012000E00020CF
:10288000274909684FF47A7291FBF2F1142901DAB1
:10289000012100E000210840A0B1214800684FF468
:1028A0007A7190FBF1F040F256410A2202FB1010BF
:1028B00000EB800040000E2190FBF1F000B21A49BD
:1028C0000880ACE0164800684FF47A7190FBF1F094
:1028D000082801DB012000E00020114909684FF4BD
:1028E0007A7291FBF2F10D2901DA012100E0002159
:1028F0000840E8B10A4800684FF47A7190FBF1F0A3
:1029000041F63C61642202FB101000EB80004000A5
:102910005C2190FBF1F000B2034908807FE00000E9
:1029200018020020503A02001402002078630100CF
:102930006E4800684FF47A7190FBF1F0062801DBD5
:10294000012000E00020694909684FF47A7291FB88
:10295000F2F1082901DA012100E000210840A0B1CC
:10296000624800684FF47A7190FBF1F041F21A313D
:10297000642202FB101000EB80004000362190FB27
:10298000F1F000B25A49088049E0584800684FF415
:102990007A7190FBF1F0052801DB012000E00020B6
:1029A000524909684FF47A7291FBF2F1062901DA73
:1029B000012100E000210840A0B14C4800684FF41C
:1029C0007A7190FBF1F040F2DA71642202FB101090
:1029D00000EB80004000122190FBF1F000B244496E
:1029E00008801CE0414800684FF47A7190FBF1F0D8
:1029F000062814DA3D4909684FF47A7291FBF2F126
:102A000001EB81014900C1F5C27101EB8101480070
:102A1000C11700EB9171891009B2354A1180344811
:102A2000B0F90000002802DC00203149088031485C
:102A3000B0F9000019281DDC2E49B1F90010C1F1D0
:102A40001900FDF792FD80462B4A2C4BFDF7A3FCA5
:102A500004460D462648B0F90000FDF786FD0646FF
:102A600022462B46FDF7F0FB8246FDF78FFD00B2B4
:102A70001F4908801F48B0F90000192801DD012016
:102A800000E000201B49B1F90010282901DC0121D8
:102A900000E000210840E8B11649B1F90010A1F1A9
:102AA0001900FDF762FD8046134A144BFDF773FCD5
:102AB00004460D460E48B0F90000FDF756FD0646E7
:102AC00022462B46FDF761FC8246FDF75FFD00B212
:102AD000074908800648B0F9000040F2E731884213
:102AE00002DB084602490880BDE8F09F180200207A
:102AF00014020020160200209A9999999999C93FC9
:102B00008AB00025AA4600260024FEF7F2F9FEF757
:102B100023F947216320FEF756FDFFF781FCFEF7FE
:102B2000E8F9FEF74FFAFEF72DFAFEF72DFFA9E0C0
:102B30000220FFF797FCFFF725FC0220FFF792FC2D
:102B4000FFF7FCFC00F0C2F84F48B0F90000FDF7B9
:102B500003FD07464D49FDF739FB81464C48007897
:102B600000287DD00026002405E04A48005D30445E
:102B7000C6B2601CC4B24748C078001DA042F4DC55
:102B80004448005DB04271D142494979414A1279C5
:102B900041EA0220FDF7E0FC07463F49FDF716FB3E
:102BA00005463C49C9793B4A927941EA0220FDF742
:102BB000D3FC07463849FDF709FB82464846FDF736
:102BC00004FD07463A460B4634A101A8FEF758FF1C
:102BD0002846FDF7FAFC07463A460B4631A107A8FE
:102BE000FEF74EFF5046FDF7F0FC07463A460B460F
:102BF0002CA104A8FEF744FF002211461046FEF760
:102C0000BDFA012200211020FEF7B8FA02220021AD
:102C10002020FEF7B3FA032200213020FEF7AEFA9F
:102C200007AA00214020FEF715FB04220221002004
:102C3000FEF7A4FA052202211020FEF79FFA0622D1
:102C400002212020FEF79AFA072202213020FEF707
:102C500095FA04AA02214020FEF7FCFA01AA01E03D
:102C600007E003E004210020FEF7F4FA0020084901
:102C70000870FA20FFF7F6FB2A4649462846FFF778
:102C800017FC00BF54E700001402002000002041A0
:102C90001F020020580200200000C84252483A2576
:102CA0002E3166003A252E336600000070B50446CA
:102CB0000D4629462046FEF762FE00BF80212046D1
:102CC000FEF790FD0028F9D070BD000038B5002453
:102CD00006A00068009006E02046641C1DF8001065
:102CE0000348FFF7E3FF032CF6DB38BDA515BA0058
:102CF000004400400000000000000000002F000021
:102D000000000700070000147F147F1400242A7FAE
:102D10002A1200626408132300364955225000002D
:102D20000503000000001C224100000041221C009D
:102D30000014083E08140008083E0808000000A01F
:102D4000600000080808080800006060000000201B
:102D500010080402003E5149453E0000427F4000F9
:102D6000004261514946002141454B31001814127F
:102D70007F10002745454539003C4A49493000014C
:102D80007109050300364949493600064949291E9B
:102D900000003636000000005636000000081422FD
:102DA00041000014141414140000412214080002FD
:102DB0000151090600324959513E007C1211127C22
:102DC000007F49494936003E41414122007F41414F
:102DD000221C007F49494941007F09090901003E41
:102DE0004149497A007F0808087F0000417F41007F
:102DF000002040413F01007F08142241007F4040F5
:102E00004040007F020C027F007F0408107F003EDC
:102E10004141413E007F09090906003E4151215EC2
:102E2000007F091929460046494949310001017FBF
:102E30000101003F4040403F001F2040201F003F55
:102E40004038403F00631408146300070870080707
:102E500000615149454300007F41410000552A551A
:102E60002A55000041417F00000402010204004095
:102E700040404040000001020400002054545478B7
:102E8000007F4844443800384444442000384444D7
:102E9000487F00385454541800087E090102001875
:102EA000A4A4A47C007F080404780000447D4000B2
:102EB000004080847D00007F102844000000417F96
:102EC0004000007C04180478007C08040478003872
:102ED0004444443800FC242424180018242418FCFA
:102EE000007C0804040800485454542000043F4463
:102EF0004020003C4040207C001C2040201C003C26
:102F00004030403C004428102844001CA0A0A07C75
:102F1000004464544C4414141414141400000000AD
:102F2000000000000000000000000000000000F8A9
:102F300000000000000000333000000000100C060C
:102F4000100C0600000000000000000040C07840A7
:102F5000C0784000043F04043F040400007088FC73
:102F600008300000001820FF211E0000F008F000CB
:102F7000E018000000211C031E211E0000F008883C
:102F8000700000001E2123241927211010160E00A6
:102F9000000000000000000000000000000000E051
:102FA0001804020000000007182040000002041866
:102FB000E00000000040201807000000404080F0C2
:102FC000804040000202010F01020200000000F0F8
:102FD000000000000101011F0101010000000000CC
:102FE0000000000080B07000000000000000000041
:102FF00000000000000101010101010100000000CA
:103000000000000000303000000000000000000060
:1030100080601804006018060100000000E010083D
:103020000810E000000F102020100F00001010F812
:10303000000000000020203F202000000070080851
:1030400008887000003028242221300000300888D1
:10305000884830000018202020110E000000C020F9
:1030600010F8000000070424243F240000F808881A
:10307000880808000019212020110E0000E01088A7
:1030800088180000000F112020110E0000380808D9
:10309000C83808000000003F0000000000708808E9
:1030A00008887000001C222121221C0000E010086A
:1030B0000810E0000000312222110F00000000C0C3
:1030C000C000000000000030300000000000008060
:1030D0000000000000008060000000000000804050
:1030E0002010080000010204081020004040404069
:1030F00040404000040404040404040000081020BC
:103100004080000000201008040201000070480800
:103110000808F0000000003036010000C030C82868
:10312000E810E0000718272423140B000000C03823
:10313000E0000000203C23020227382008F888889D
:1031400088700000203F202020110E00C0300808A9
:1031500008083800071820202010080008F8080880
:103160000810E000203F202020100F0008F8888879
:10317000E8081000203F20202320180008F8888845
:10318000E8081000203F200003000000C0300808BD
:103190000838000007182020221E020008F8080046
:1031A0000008F808203F210101213F20000808F80D
:1031B000080800000020203F202000000000080830
:1031C000F8080800C08080807F00000008F888C0F0
:1031D00028180800203F20012638200008F80800A1
:1031E00000000000203F20202020300008F8F800D8
:1031F000F8F80800203F003F003F200008F830C0EA
:103200000008F808203F200007183F00E0100808D9
:103210000810E0000F10202020100F0008F8080808
:103220000808F000203F210101010000E01008081B
:103230000810E0000F18242438504F0008F8888840
:1032400088887000203F2000030C30200070880820
:10325000080838000038202121221C00180808F82E
:10326000080818000000203F2000000008F80800AF
:103270000008F808001F202020201F000878880080
:1032800000C83808000007380E010000F80800F8F0
:103290000008F800033C0700073C0300081868809A
:1032A0008068180820302C03032C30200838C80010
:1032B000C83808000000203F20000000100808085F
:1032C000C83808002038262120201800000000FE01
:1032D000020202000000007F40404000000C30C0AD
:1032E00000000000000000010638C00000020202D9
:1032F000FE000000004040407F000000000004028B
:1033000002020400000000000000000000000000B5
:1033100000000000808080808080808000020204A5
:10332000000000000000000000000000000080809D
:10333000808000000019242222223F2008F800800B
:1033400080000000003F112020110E0000000080CE
:1033500080800000000E112020201100000000805D
:103360008088F800000E112020103F20000080808F
:1033700080800000001F222222221300008080F0A3
:10338000888888180020203F2020000000008080CE
:1033900080808000006B94949493600008F8008013
:1033A00080800000203F210000203F20008098986E
:1033B000000000000020203F2020000000000080CE
:1033C0009898000000C08080807F000008F800000E
:1033D00080808000203F24022D302000000808F863
:1033E000000000000020203F20200000808080801E
:1033F00080808000203F20003F20003F80800080B0
:1034000080800000203F210000203F2000008080BD
:1034100080800000001F202020201F00808000806E
:103420008000000080FFA12020110E00000000801D
:1034300080808000000E112020A0FF80808080000E
:103440008080800020203F2120000100000080803B
:10345000808080000033242424241900008080E030
:10346000808000000000001F2020000080800000FD
:1034700000808000001F202020103F2080808000DE
:103480000080808000010E300806010080800080EE
:10349000008080800F300C030C300F000080800013
:1034A000808080000020312E0E312000808080003E
:1034B0000080808080818E701806010000808080EE
:1034C000808080000021302C22213000000000008C
:1034D000807C020200000000003F4040000000002D
:1034E000FF00000000000000FF0000000002027C5E
:1034F000800000000040403F000000000006010185
:103500000202040400000000000000002C35000846
:103510000000002040020000D80800081C36000807
:103520004002002040040000B81A0008500600A223
:103530004A040001101101020304060708090004EF
:1035400004F45454545F0473F4041E8101200710E2
:1035500010905F351501000610355F901010201097
:10356000080C0484146405063DF0050404140C20C2
:10357000000F10048484444724140C070C142444C2
:10358000846120091060028C0000FE92010210FE8E
:103590007F119F10087E01407E42427E020004118E
:1035A000427E40222009FC242424FC2526240801F4
:1035B000106000101240308F80844C552525255511
:1035C0004C808080A01404FC84840604051184E4EB
:1035D0001C8401140C2060201F101004020100FF45
:1035E0003506110620000E10FF101020A4ACB5A661
:1035F000B4ACA42020E0040F8F301F0888804F3A1D
:103600000A0A7A8A8F80E00000041100001C7629E3
:0C3610001E692240050204060823000089
:0400000508000131BD
:00000001FF
